:020000040800F2
:1000000000800020390A0008990900089F090008AB
:10001000A5090008AB090008B109000800000000AC
:10002000000000000000000000000000B709000808
:10003000C509000800000000D3090008E109000814
:10004000890A0008890A0008890A0008890A000844
:10005000890A0008890A0008890A0008890A000834
:10006000890A0008890A0008890A0008890A000824
:10007000890A0008890A0008890A0008890A000814
:10008000890A000800000000890A0008890A00089F
:10009000890A0008890A0008890A0008890A0008F4
:1000A000890A0008890A0008890A0008890A0008E4
:1000B000890A0008890A0008890A0008890A0008D4
:1000C000890A0008890A0008890A0008890A0008C4
:1000D000890A0008890A0008890A0008890A0008B4
:1000E000890A0008890A0008890A0008890A0008A4
:1000F000890A0008890A0008890A0008000000002F
:1001000000000000890A000800000000890A0008B9
:10011000890A000800000000890A0008890A00080E
:10012000890A0008890A0008890A0008890A000863
:10013000890A00080000000000000000890A000889
:10014000890A0008890A0008000000000000000079
:10015000000000000000000000000000000000009F
:10016000000000000000000000000000890A0008F4
:10017000890A0008000000000000000000000000E4
:1001800000000000890A00080000000000000000D4
:10019000000000000000000000000000000000005F
:1001A0000000000000000000890A0008890A000819
:1001B000ED090008010A0008890A00080000000093
:1001C00000000000890A0008000000000000000094
:0801D000890A0008890A0008F1
:1001D80010B5054C237833B9044B13B10448AFF379
:1001E80000800123237010BD0C00002000000000D7
:1001F8003C36000808B5034B1BB103490348AFF36D
:10020800008008BD00000000100000203C360008F7
:1002180080B582B002AF00F034FC00F015F800F0B1
:1002280093F800F051F800F021F9012301934023DD
:1002380000938023034A0021002000F0AEF800F06C
:10024800D9F9FEE75436000880B594B000AF07F13D
:10025800180338220021184603F0E4F93B1D002258
:100268001A605A609A60DA601A614FF4007002F0FE
:1002780015FA0223BB614FF480737B624023BB6293
:1002880000237B6307F11803184602F0BBFA034604
:10029800002B01D000F07CF80F237B600123BB60AA
:1002A8000023FB6000233B6100237B613B1D002191
:1002B800184602F0BFFD0346002B01D000F068F895
:1002C80000BF5037BD4680BD80B500AF1B4B1C4AF0
:1002D8001A601A4B1B4A5A60184B00229A60174B37
:1002E8000122DA60154B00221A61144B00225A6170
:1002F800124B00229A61114B0022DA610F4B002247
:100308001A620E4800F034FF0346002B01D000F0BB
:100318003FF80021094802F029F90346002B01D0D3
:1003280000F036F80021054802F06BF90346002B6F
:1003380001D000F02DF800BF80BD00BF28000020CC
:10034800007800401A06100080B483B000AF0F4B4D
:10035800DB6C0E4A43F00403D3640C4BDB6C03F0F4
:1003680004037B607B68094BDB6C084A43F001039C
:10037800D364064BDB6C03F001033B603B6800BFB2
:100388000C37BD465DF8047B704700BF0010024083
:1003980080B400AF72B600BFFEE780B586B000AF8C
:1003A800BA601A460346FB810B46BB811346FB80A5
:1003B800B7F906300733002B00DA0733DB103B822E
:1003C8000023FB750023BB8244E000237B822FE0DF
:1003D8007B8A03F00703002B03D0FB7D5B00FB75D2
:1003E80012E0B7F91430B7F9102003FB02F2B7F99D
:1003F8001230002B00DA0733DB101BB213441A4605
:10040800BB6813441B78FB7597F91730002B09DA82
:10041800FA897B8A13449BB2B989BA8CD2B218463E
:1004280000F02EF9B7F912309BB201339BB27B82F0
:10043800B7F91220B7F906309A42C9DBB7F9143078
:100448009BB201339BB2BB82B7F90C309BB201332C
:100458009BB2BB81B7F91420B7F920309A42B4DBBC
:1004680000BF00BF1837BD4680BD000080B582B010
:1004780000AF00F065F944F62063012278215B485B
:1004880000F0FAFF0346002B01D00023A9E040F654
:10049800C4137B6002E07B68013B7B607B68002BB8
:1004A800F9D1AE220021782000F0C6F920220021DF
:1004B800782000F0C1F910220021782000F0BCF962
:1004C800B0220021782000F0B7F9C8220021782056
:1004D80000F0B2F900220021782000F0ADF91022D6
:1004E8000021782000F0A8F940220021782000F0AF
:1004F800A3F981220021782000F09EF9FF22002133
:10050800782000F099F9A1220021782000F094F9D0
:10051800A6220021782000F08FF9A8220021782057
:1005280000F08AF93F220021782000F085F9A42202
:100538000021782000F080F9D3220021782000F0F3
:100548007BF900220021782000F076F9D5220021DD
:10055800782000F071F9F0220021782000F06CF981
:10056800D9220021782000F067F922220021782082
:1005780000F062F9DA220021782000F05DF91222F9
:100588000021782000F058F9DB220021782000F0C3
:1005980053F920220021782000F04EF98D22002105
:1005A800782000F049F914220021782000F044F95D
:1005B800AF220021782000F03FF92E220021782078
:1005C80000F03AF9002000F043F800F013F8084B67
:1005D80000221A80064B00225A80054B01225A71CC
:1005E800012318460837BD4680BD00BF28000020FB
:1005F8007404002080B582B000AF0023FB711DE0B9
:10060800FB79503BDBB21A460021782000F014F940
:1006180000220021782000F00FF910220021782014
:1006280000F00AF9FB79DB01084A1A4480234021CB
:10063800782000F09BF8FB790133FB71FB79072BDD
:10064800DED900BF00BF0837BD4680BD740000205A
:1006580080B582B000AF0346FB71FB79002B01D156
:10066800002300E0FF234FF480621946034802F09C
:10067800D9FF00BF0837BD4680BD00BF7400002009
:1006880080B483B000AF0346FB800B46BB801346A3
:10069800FB70FB887F2B48D8BB883F2B45D8264B5F
:1006A8001B79002B06D0FB78002B0CBF01230023FD
:1006B800DBB2FB70FB78012B1AD1FA88BB88DB0808
:1006C80098B20346DB0113441C4AD35C5AB2BB8878
:1006D80003F00703012101FA03F35BB2134359B294
:1006E800FA880346DB011344C9B2144AD1541DE009
:1006F800FA88BB88DB0898B20346DB0113440F4A2B
:10070800D35C5AB2BB8803F00703012101FA03F353
:100718005BB2DB435BB2134059B2FA880346DB0194
:100728001344C9B2054AD15400E000BF0C37BD4696
:100738005DF8047B704700BF74040020740000203B
:1007480080B483B000AF084B7B6002E07B68013B5C
:100758007B607B68002BF9D100BF00BF0C37BD461A
:100768005DF8047B704700BF90D0030090B5C7B018
:1007780002AF0446084607F58871A1F588710A603A
:10078800194607F58873A3F2091322461A7007F56C
:100798008873A3F5857302461A7007F58873A3F565
:1007A80086730A461A8007F58873A3F5827307F5DE
:1007B8008872A2F5857212781A70002387F80F31B3
:1007C80015E097F80F3107F58872A2F5887212685C
:1007D8001A4497F80F310133117807F58872A2F59A
:1007E8008272D15497F80F31013387F80F3197F897
:1007F8000F319BB207F58872A2F5867212889A4269
:10080800DFD807F58873A3F209131B7899B207F5A7
:100818008873A3F586731B8801339BB207F10C021A
:100828000A200090034800F033FD00BF07F58A77DF
:10083800BD4690BD2800002080B586B002AF0346B3
:10084800FB710B46BB7113467B71BB793B737B799C
:100858007B73FB7999B207F10C020A2300930223F8
:10086800034800F015FD00BF1037BD4680BD00BF2E
:100878002800002080B582B000AF0F4B1B6E0E4AD7
:1008880043F0010313660C4B1B6E03F001037B60FE
:100898007B68094B9B6D084A43F080539365064B70
:1008A8009B6D03F080533B603B6801F09BFF00BFEA
:1008B8000837BD4680BD00BF0010024080B59AB021
:1008C80000AF786007F1540300221A605A609A60FA
:1008D800DA601A6107F1100344220021184602F079
:1008E800A1FE7B681B68274A934247D14FF4807367
:1008F8003B6100233B6307F11003184602F07EFCBE
:100908000346002B01D0FFF743FD1F4BDB6C1E4A4B
:1009180043F00403D3641C4BDB6C03F00403FB605B
:10092800FB684FF440737B651223BB650023FB65AE
:1009380000233B6608237B6607F1540319461348D6
:1009480000F094FA104B9B6D0F4A43F08043936577
:100958000D4B9B6D03F08043BB60BB6800220021F8
:100968005C2000F0DAF95C2000F0F1F900220021A7
:100978005D2000F0D2F95D2000F0E9F900BF68378A
:10098800BD4680BD007800400010024000080048C5
:1009980080B400AFFEE780B400AFFEE780B400AFDC
:1009A800FEE780B400AFFEE780B400AFFEE780B496
:1009B80000AF00BFBD465DF8047B704780B400AF50
:1009C80000BFBD465DF8047B704780B400AF00BF30
:1009D800BD465DF8047B704780B500AF00F0A4F811
:1009E80000BF80BD80B500AF024800F04CFE00BFDC
:1009F80080BD00BF2800002080B500AF024800F08D
:100A08005CFE00BF80BD00BF2800002080B400AF9E
:100A1800064BD3F88830054A43F47003C2F888308F
:100A280000BFBD465DF8047B704700BF00ED00E0E5
:100A38000D4885460D480E490E4A002302E0D45859
:100A4800C4500433C4188C42F9D30B4A0B4C00230E
:100A580001E013600432A242FBD3FFF7D7FF02F094
:100A6800BDFDFFF7D5FBFEE7008000200000002059
:100A78000C0000206C3A00080C00002080040020C4
:100A8800FEE780B582B000AF0023FB71032000F0C1
:100A980039F90F2000F00EF80346002B02D001238D
:100AA800FB7101E0FFF7E6FEFB7918460837BD4603
:100AB80080BD000080B584B000AF78600023FB7370
:100AC800164B1B68002B22D0154B1A68134B1B685A
:100AD8004FF47A71B1FBF3F3B2FBF3F3184600F06D
:100AE80044F90346002B0FD17B680F2B09D800224D
:100AF80079684FF0FF3000F010F90A4A7B681360FC
:100B080007E00123FB7304E00123FB7301E00123E9
:100B1800FB73FB7B18461037BD4680BD08000020DC
:100B2800000000200400002080B400AF054B1A68C4
:100B3800054B1B681344034A136000BFBD465DF8AC
:100B4800047B70477C0400200800002080B400AFBC
:100B5800034B1B681846BD465DF8047B704700BF11
:100B68007C04002080B485B000AF78607B6803F017
:100B78000703FB600C4BDB68BB60BA684FF6FF03EA
:100B88001340BB60FB681A02BB68134343F0BF63A2
:100B980043F40033BB60044ABB68D36000BF14371A
:100BA800BD465DF8047B704700ED00E080B400AFFF
:100BB800044BDB681B0A03F007031846BD465DF8C3
:100BC800047B704700ED00E080B483B000AF0346BB
:100BD800FB7197F90730002B0BDBFB7903F01F0241
:100BE800074997F907305B09012000FA02F241F83A
:100BF800232000BF0C37BD465DF8047B704700BF5B
:100C080000E100E080B483B000AF03463960FB71B7
:100C180097F90730002B0ADB3B68DAB20C4997F9E1
:100C280007301201D2B20B4483F800230AE03B6874
:100C3800DAB20849FB7903F00F03043B1201D2B280
:100C48000B441A7600BF0C37BD465DF8047B70472D
:100C580000E100E000ED00E080B489B000AFF8608A
:100C6800B9607A60FB6803F00703FB61FB69C3F1B5
:100C78000703042B28BF0423BB61FB690433062B3D
:100C880002D9FB69033B00E000237B614FF0FF3290
:100C9800BB6902FA03F3DA43BB681A407B699A40DE
:100CA8004FF0FF317B6901FA03F3D9437B680B40AE
:100CB800134318462437BD465DF8047B704700008F
:100CC80080B582B000AF78607B68013BB3F1807F6C
:100CD80001D301230FE00A4A7B68013B53600F21CF
:100CE8004FF0FF30FFF78EFF054B00229A60044B50
:100CF80007221A60002318460837BD4680BD00BF8A
:100D080010E000E080B582B000AF78607868FFF747
:100D180029FF00BF0837BD4680BD80B586B000AF4B
:100D28000346B9607A60FB73FFF740FF78617A6821
:100D3800B9687869FFF790FF024697F90F301146B6
:100D48001846FFF75FFF00BF1837BD4680BD80B566
:100D580082B000AF0346FB7197F907301846FFF7DA
:100D680033FF00BF0837BD4680BD80B582B000AFF5
:100D780078607868FFF7A4FF034618460837BD4631
:100D880080BD80B584B000AF78600023FB737B68BA
:100D980093F82530DBB2022B0DD07B680422DA638E
:100DA8007B68012283F825207B68002283F82420B1
:100DB8000123FB7347E07B681B681A687B681B6824
:100DC80022F00E021A607B681B681A687B681B6831
:100DD80022F001021A607B689B6C1A687B689B6C26
:100DE80022F480721A607B685B6C03F01F027B68D8
:100DF8001B6C012101FA02F25A607B68DB6C7A688D
:100E0800126D5A607B685B6D002B0CD07B685B6D44
:100E18001A687B685B6D22F480721A607B689B6D30
:100E28007A68D26D5A607B68012283F825207B6836
:100E3800002283F824207B689B6B002B03D07B68FF
:100E48009B6B78689847FB7B18461037BD4680BD7A
:100E580080B483B000AF78607B6893F82530DBB24C
:100E680018460C37BD465DF8047B704780B487B0E0
:100E780000AF7860396000237B615AE13B681A68EB
:100E880001217B6901FA03F31340FB60FB68002B27
:100E980000F04C813B685B6803F00303012B05D02D
:100EA8003B685B6803F00303022B30D17B689B68C7
:100EB8003B617B695B00032202FA03F3DB433A6977
:100EC80013403B613B68DA687B695B0002FA03F315
:100ED8003A6913433B617B683A699A607B685B684F
:100EE8003B6101227B6902FA03F3DB433A69134051
:100EF8003B613B685B681B0903F001027B6902FAEE
:100F080003F33A6913433B617B683A695A603B686B
:100F18005B6803F00303032B17D07B68DB683B6136
:100F28007B695B00032202FA03F3DB433A6913404F
:100F38003B613B689A687B695B0002FA03F33A6994
:100F480013433B617B683A69DA603B685B6803F08E
:100F58000303022B23D17B69DA087B68083253F834
:100F680022303B617B6903F007039B000F2202FAE2
:100F780003F3DB433A6913403B613B681A697B69B9
:100F880003F007039B0002FA03F33A6913433B613A
:100F98007B69DA087B680832396943F822107B6874
:100FA8001B683B617B695B00032202FA03F3DB43A6
:100FB8003A6913403B613B685B6803F003027B6955
:100FC8005B0002FA03F33A6913433B617B683A69B1
:100FD8001A603B685B6803F44033002B00F0A6807E
:100FE8005B4B1B6E5A4A43F001031366584B1B6E4A
:100FF80003F00103BB60BB68564A7B699B08023358
:1010080052F823303B617B6903F003039B000F22F6
:1010180002FA03F3DB433A6913403B617B68B3F19F
:10102800904F1FD07B684C4A934219D07B684B4A3B
:10103800934213D07B684A4A93420DD07B68494A51
:10104800934207D07B68484A934201D105230AE0BE
:10105800062308E0042306E0032304E0022302E059
:10106800012300E000237A6902F003029200934012
:101078003A6913433B6137497B699B0802333A69F4
:1010880041F82320394B9B683B61FB68DB433A6995
:1010980013403B613B685B6803F48013002B03D06B
:1010A8003A69FB6813433B61304A3B6993602F4BB5
:1010B800DB683B61FB68DB433A6913403B613B6893
:1010C8005B6803F40013002B03D03A69FB681343F1
:1010D8003B61264A3B69D360244B5B683B61FB68F4
:1010E800DB433A6913403B613B685B6803F40033B8
:1010F800002B03D03A69FB6813433B611B4A3B69E9
:1011080053601A4B1B683B61FB68DB433A69134029
:101118003B613B685B6803F48033002B03D03A697A
:10112800FB6813433B61114A3B6913607B690133D8
:101138007B613B681A687B6922FA03F3002B7FF412
:101148009DAE00BF00BF1C37BD465DF8047B7047ED
:101158000010024000000140000400480008004858
:10116800000C00480010004800140048000401402A
:1011780080B582B000AF78607B68002B01D1012375
:1011880081E07B6893F84130DBB2002B06D17B68A5
:10119800002283F840207868FFF790FB7B682422C0
:1011A80083F841207B681B681A687B681B6822F0FB
:1011B80001021A607B685A687B681B6822F07062BB
:1011C8001A617B681B689A687B681B6822F4004276
:1011D8009A607B68DB68012B07D17B689A687B681B
:1011E8001B6842F400429A6006E07B689A687B6854
:1011F8001B6842F404429A607B68DB68022B04D1C6
:101208007B681B684FF400625A607B681B685B68E8
:101218007A68126843F0007343F4004353607B68B4
:101228001B68DA687B681B6822F40042DA607B6816
:101238001A697B685B6942EA03017B689B691A0249
:101248007B681B680A43DA607B68D9697B681A6A1D
:101258007B681B680A431A607B681B681A687B688E
:101268001B6842F001021A607B6800225A647B689E
:10127800202283F841207B6800221A637B680022C1
:1012880083F84220002318460837BD4680BD000079
:1012980080B588B002AFF8607A601A460B467B8149
:1012A80013463B81FB6893F84130DBB2202B40F0BA
:1012B800DA80FB6893F84030012B01D10223D3E098
:1012C800FB68012283F84020FFF740FC78617B69C6
:1012D8000093192301224FF40041F86800F00DFF34
:1012E8000346002B01D00123BEE0FB68212283F8CE
:1012F8004120FB68102283F84220FB6800225A64D0
:10130800FB687A685A62FB683A895A85FB6800224A
:101318005A63FB685B8D9BB2FF2B0ED9FB68FF22DB
:101328001A85FB681B8DDAB27989514B00934FF00F
:101338008073F86801F08AF86CE0FB685B8D9AB2FC
:10134800FB681A85FB681B8DDAB27989484B0093D4
:101358004FF00073F86801F079F85BE07A69396A50
:10136800F86800F00AFF0346002B01D001237BE058
:10137800FB685B6A1A78FB681B689A62FB685B6AA1
:101388005A1CFB685A62FB685B8D9BB2013B9AB2A0
:10139800FB685A85FB681B8D013B9AB2FB681A856E
:1013A800FB685B8D9BB2002B34D0FB681B8D002B38
:1013B80030D17B6900933B6A00228021F86800F0F5
:1013C8009CFE0346002B01D001234DE0FB685B8D9A
:1013D8009BB2FF2B0ED9FB68FF221A85FB681B8D79
:1013E800DAB27989002300934FF08073F86801F02E
:1013F8002DF80FE0FB685B8D9AB2FB681A85FB68D5
:101408001B8DDAB27989002300934FF00073F868D6
:1014180001F01CF8FB685B8D9BB2002B9ED17A69AA
:10142800396AF86800F0E9FE0346002B01D0012371
:101438001AE0FB681B682022DA61FB681B685968A0
:10144800FB681A680B4B0B405360FB68202283F83B
:101458004120FB68002283F84220FB68002283F8C1
:101468004020002300E0022318461837BD4680BDFF
:101478000020008000E800FE80B58AB002AFF86066
:101488007A603B600B467B8100237B61FB6893F8A5
:101498004130DBB2202B40F0F180FB681B689B6970
:1014A80003F40043B3F5004F01D10223E7E0FB68E2
:1014B80093F84030012B01D10223E0E0FB680122C0
:1014C80083F84020FB68242283F84120FB6800222F
:1014D8005A64FB68DB68012B07D17B89C3F30903D6
:1014E80043F0007343F4005304E07B89C3F309031A
:1014F80043F42053FA6812685360FFF727FBB8617A
:10150800FB681B689B6903F02003202B0CBF012399
:101518000023DBB2FB77FB681B689B6903F01003B1
:10152800102B0CBF01230023DBB2BB7734E03B68F0
:10153800B3F1FF3F1AD0FFF709FB0246BB69D31A84
:101548003A689A4202D33B68002B0FD1FB682022ED
:1015580083F84120FB685B6C43F02002FB685A6407
:10156800FB68002283F84020012388E0FB681B68A1
:101578009B6903F02003202B0CBF01230023DBB25F
:10158800FB77FB681B689B6903F01003102B0CBFEB
:1015980001230023DBB2BB77FB7F002B02D1BB7F8B
:1015A800002BC4D0FB681B689B6903F01003102B49
:1015B8001AD0BB6900933B6800222021F86800F02C
:1015C8009CFD0346002B01D0012358E0FB681B68F3
:1015D8002022DA61FB68202283F84120FB68002280
:1015E80083F8402000234AE0BB6900933B6800224F
:1015F8002021F86800F081FD0346002B01D001236B
:101608003DE0FB681B681022DA61FB681B6820223A
:10161800DA617B697A689A4218D1FB681B685A6854
:10162800FB681B6842F480425A60BB6900933B68C0
:1016380000222021F86800F060FD0346002B01D04D
:1016480001231CE0FB681B682022DA617B690133F7
:101658007B617B697A689A423FF63BAFFB68202240
:1016680083F84120FB685B6C43F02002FB685A64F6
:10167800FB68002283F84020012300E0022318467B
:101688002037BD4680BD80B584B000AF78607B68E8
:101698001B689B69FB607B681B681B68BB607B6879
:1016A8005B6B002B05D07B685B6BBA68F968786860
:1016B800984700BF1037BD4680BD80B586B000AFE3
:1016C80078607B681B689B697B617B681B681B680B
:1016D8003B617B691B0A03F00103002B10D03B69B7
:1016E800DB0903F00103002B0AD07B685B6C43F035
:1016F80001027B685A647B681B684FF48072DA6168
:101708007B699B0A03F00103002B10D03B69DB09BE
:1017180003F00103002B0AD07B685B6C43F00802DE
:101728007B685A647B681B684FF48062DA617B6966
:101738005B0A03F00103002B10D03B69DB0903F0BF
:101748000103002B0AD07B685B6C43F002027B68C4
:101758005A647B681B684FF40072DA617B685B6CC3
:10176800FB60FB6803F00B03002B03D0F968786873
:1017780000F08AFB00BF1837BD4680BD80B483B037
:1017880000AF786000BF0C37BD465DF8047B70473A
:1017980080B483B000AF786000BF0C37BD465DF8F9
:1017A800047B704780B483B000AF78600B46FB7051
:1017B80013463B8000BF0C37BD465DF8047B70477D
:1017C80080B483B000AF786000BF0C37BD465DF8C9
:1017D800047B704780B483B000AF786000BF0C37DB
:1017E800BD465DF8047B704780B483B000AF786075
:1017F80000BF0C37BD465DF8047B704780B586B0E6
:1018080000AFF860B9607A60FB68DB6A7B61BB682F
:101818003B61FB6893F84030012B01D10223ECE0D7
:10182800FB68012283F840203B695B0903F0010350
:10183800002B09D07B685B0903F00103002B03D060
:101848003969F86800F0C0F93B691B0903F0010326
:10185800002B4DD07B681B0903F00103002B47D0F8
:10186800FB685B8D9BB2002B28D1FB6893F8413055
:10187800DBB2282B08D17B69B3F1007F04D1396929
:10188800F86800F0ABFA32E0FB6893F84130DBB25D
:10189800292B0ED17B6913F5803F0AD0FB681B68A2
:1018A8001022DA61F86800F0E6FBF86800F02DF91C
:1018B8001DE0FB681B681022DA6196E0FB681B6874
:1018C8001022DA61FB685B6C43F00402FB685A641F
:1018D8007B69002B04D07B69B3F1807F40F0858061
:1018E800FB685B6C1946F86800F0CEFA7DE07CE096
:1018F8003B699B0803F00103002B30D07B689B08F1
:1019080003F00103002B2AD0FB685B8D9BB2002BF0
:1019180018D0FB681B685A6AFB685B6AD2B21A70F7
:10192800FB685B6A5A1CFB685A62FB681B8D013BAB
:101938009AB2FB681A85FB685B8D9BB2013B9AB231
:10194800FB685A85FB685B8D9BB2002B4FD17B6986
:1019580013F5803F4BD0F86800F0D7F847E03B69B3
:10196800DB0803F00103002B0AD07B68DB0803F0D7
:101978000103002B04D03969F86800F042F837E019
:101988003B695B0803F00103002B31D07B685B08DF
:1019980003F00103002B2BD0FB685B8D9BB2002B5F
:1019A80018D0FB685B6A1A78FB681B689A62FB6848
:1019B8005B6A5A1CFB685A62FB685B8D9BB2013BF1
:1019C8009AB2FB685A85FB681B8D013B9AB2FB688B
:1019D8001A850DE07B69B3F1807F02D07B69002B0B
:1019E80006D1F86800F091F802E000BF00E000BFFF
:1019F800FB68002283F84020002318461837BD46AC
:101A080080BD80B584B000AF786039607B6893F89A
:101A18004130DBB203F02803282B6AD17B681B68AE
:101A28009B691B0CDBB203F00103FB737B681B682B
:101A38009B691B0C9BB203F0FE03BB817B681B6890
:101A48009B689BB2C3F309037B817B681B68DB68D7
:101A58009BB203F0FE033B817B68DB68022B38D125
:101A68007B89DB099AB2BB8953409BB203F006031A
:101A7800002B1CD17B89BB817B689B6C5A1C7B68C3
:101A88009A647B689B6C022B3BD17B6800229A642A
:101A98007B681B680822DA617B68002283F8402093
:101AA800BA89FB7B19467868FFF77CFE29E03B89F9
:101AB800BB814FF40041786800F0FAFC7B68002293
:101AC80083F84020BA89FB7B19467868FFF76AFEDD
:101AD80017E04FF40041786800F0EAFC7B680022C8
:101AE80083F84020BA89FB7B19467868FFF75AFECD
:101AF80007E07B681B680822DA617B68002283F8AC
:101B0800402000BF1037BD4680BD80B584B000AF0F
:101B180078607B681B681B68FB607B68002283F821
:101B28004220FB689B0B03F00103002B08D07B6865
:101B38001B681A687B681B6822F480421A600DE0F3
:101B4800FB68DB0B03F00103002B07D07B681B68E5
:101B58001A687B681B6822F400421A607B6893F855
:101B68004130DBB2292B12D17B68282283F841202F
:101B78007B6821221A630121786800F099FC7B6850
:101B8800002283F840207868FFF7F8FD17E07B68AB
:101B980093F84130DBB22A2B11D17B68282283F8D5
:101BA80041207B6822221A630221786800F080FCB9
:101BB8007B68002283F840207868FFF7E9FD00BFC2
:101BC8001037BD4680BD000080B586B000AF786094
:101BD80039607B681B681B683B613B687B617B687D
:101BE80093F84130FB737B681B682022DA61FB7B2A
:101BF800212B02D0FB7B292B08D148F20101786800
:101C080000F056FC7B6821221A630DE0FB7B222B37
:101C180002D0FB7B2A2B07D148F20201786800F03A
:101C280047FC7B6822221A637B681B685A687B68BA
:101C38001B6842F400425A607B681B6859687B68DD
:101C48001A68644B0B405360786800F014FA3B69DB
:101C58009B0B03F00103002B13D07B681B681A68E9
:101C68007B681B6822F480421A607B689B6B002BA0
:101C780020D07B689B6B1B685B689AB27B685A852F
:101C880018E03B69DB0B03F00103002B12D07B68E3
:101C98001B681A687B681B6822F400421A607B681C
:101CA800DB6B002B06D07B68DB6B1B685B689AB22A
:101CB8007B685A857B699B0803F00103002B20D0C1
:101CC8007B6923F004037B617B681B685A6A7B6825
:101CD8005B6AD2B21A707B685B6A5A1C7B685A626C
:101CE8007B681B8D002B0CD07B681B8D013B9AB247
:101CF8007B681A857B685B8D9BB2013B9AB27B68D7
:101D08005A857B685B8D9BB2002B05D07B685B6C2A
:101D180043F004027B685A647B68002283F84220FF
:101D28007B6800225A637B685B6C002B10D07B6851
:101D38005B6C1946786800F0A7F87B6893F8413027
:101D4800DBB2282B41D17969786800F047F83CE08C
:101D58007B68DB6A13F5803F14D07868FFF7D5FEFF
:101D68007B681D4ADA627B68202283F841207B6801
:101D780000221A637B68002283F840207868FFF706
:101D88001FFD22E07B6893F84130DBB2222B0ED195
:101D98007B68202283F841207B6800221A637B68D5
:101DA800002283F840207868FFF7F2FC0DE07B689A
:101DB800202283F841207B6800221A637B68002276
:101DC80083F840207868FFF7D9FC00BF1837BD4674
:101DD80080BD00BF00E800FE0000FFFF80B582B0B4
:101DE80000AF786039607B68264ADA627B68002237
:101DF8001A637B68202283F841207B68002283F8DD
:101E080042207B6800225A633B689B0803F0010369
:101E1800002B22D07B681B685A6A7B685B6AD2B247
:101E28001A707B685B6A5A1C7B685A627B681B8DD8
:101E3800002B12D07B681B8D013B9AB27B681A85F8
:101E48007B685B8D9BB2013B9AB27B685A857B6845
:101E58005B6C43F004027B685A6448F203017868BB
:101E680000F026FB7B681B681022DA617B68002281
:101E780083F840207868FFF7A3FC00BF0837BD4609
:101E880080BD00BF0000FFFF80B584B000AF786060
:101E980039607B6893F84130FB737B68002283F8D4
:101EA80042207B685D4ADA627B6800225A857B683B
:101EB8005A6C3B681A437B685A64FB7B282B05D015
:101EC800FB7B292B02D0FB7B2A2B0BD103217868C3
:101ED80000F0EEFA7B68282283F841207B68504A9C
:101EE8005A6311E048F20301786800F0E1FA7B6870
:101EF80093F84130DBB2602B03D07B68202283F853
:101F080041207B6800225A637B681B6BBB607B683F
:101F18009B6B002B39D0BB68112B02D0BB68212BDF
:101F280033D17B681B681B6803F48043B3F5804F8B
:101F380007D17B681B681A687B681B6822F480429B
:101F48001A607B689B6B1846FEF782FF0346012BDD
:101F580017D07B689B6B334A9A637B68002283F8AF
:101F680040207B689B6B1846FEF70BFF0346002B4F
:101F78004DD07B689B6B9B6B7A68926B1046984739
:101F880045E0786800F050F841E07B68DB6B002B97
:101F980039D0BB68122B02D0BB68222B33D17B68A7
:101FA8001B681B6803F40043B3F5004F07D17B6837
:101FB8001B681A687B681B6822F400421A607B68F9
:101FC800DB6B1846FEF744FF0346012B17D07B68EE
:101FD800DB6B144A9A637B68002283F840207B6895
:101FE800DB6B1846FEF7CDFE0346002B11D07B684D
:101FF800DB6B9B6B7A68D26B1046984709E0786870
:1020080000F012F805E0786800F00EF802E000BF72
:1020180000E000BF00BF1037BD4680BD0000FFFFD5
:1020280005180008C720000880B582B000AF7860A6
:102038007B6893F84130DBB2602B0ED17B6820229D
:1020480083F841207B6800221A637B68002283F8AA
:1020580040207868FFF7C8FB09E07B6800221A6314
:102068007B68002283F840207868FFF7B3FB00BF45
:102078000837BD4680BD80B483B000AF78607B6808
:102088001B689B6903F00203022B03D17B681B6862
:1020980000229A627B681B689B6903F00103012B8D
:1020A80007D07B681B689A697B681B6842F001024D
:1020B8009A6100BF0C37BD465DF8047B704780B558
:1020C80084B000AF78607B689B6AFB60FB689B6BA1
:1020D800002B03D0FB689B6B00229A63FB68DB6BC9
:1020E800002B03D0FB68DB6B00229A63F868FFF7CC
:1020F8009BFF00BF1037BD4680BD80B584B000AFE0
:10210800F860B9603B601346FB7122E03B68B3F1AD
:10211800FF3F1ED0FEF71AFD0246BB69D31A3A6884
:102128009A4202D33B68002B13D1FB685B6C43F0E7
:102138002002FB685A64FB68202283F84120FB6870
:10214800002283F84220FB68002283F84020012304
:102158000FE0FB681B689A69BB681340BA689A422B
:102168000CBF01230023DBB21A46FB799A42CDD07B
:10217800002318461037BD4680BD80B584B000AF37
:10218800F860B9607A602CE07A68B968F86800F09D
:1021980071F80346002B01D001232AE0BB68B3F194
:1021A800FF3F1ED0FEF7D2FC02467B68D31ABA68FE
:1021B8009A4202D3BB68002B13D1FB685B6C43F0D7
:1021C8002002FB685A64FB68202283F84120FB68E0
:1021D800002283F84220FB68002283F84020012374
:1021E80007E0FB681B689B6903F00203022BCBD155
:1021F800002318461037BD4680BD80B584B000AFB7
:10220800F860B9607A6028E07A68B968F86800F020
:1022180031F80346002B01D0012326E0FEF796FC97
:1022280002467B68D31ABA689A4202D3BB68002B6D
:1022380013D1FB685B6C43F02002FB685A64FB68AF
:10224800202283F84120FB68002283F84220FB68A3
:10225800002283F84020012307E0FB681B689B6984
:1022680003F02003202BCFD1002318461037BD469A
:1022780080BD000080B58AB000AFF860B9607A60B0
:10228800002387F82730FB681B689B69BB61002324
:102298003B627B68FB61BB6903F01003002B75D0C0
:1022A800FB681B681022DA6156E0BB68B3F1FF3F98
:1022B80052D0FEF74BFC0246FB69D31ABA689A4221
:1022C80002D3BB68002B47D1FB681B685B6803F42B
:1022D80080437B61FB6893F84230FB74FB681B68A2
:1022E8009B6903F40043B3F5004F2ED17B69B3F526
:1022F800804F2AD0FB7C202B27D0FB681B685A68AC
:10230800FB681B6842F480425A60FEF71FFCF861C4
:102318001BE0FEF71BFC0246FB69D31A192B14D9E4
:10232800FB685B6C43F02002FB685A64FB68202260
:1023380083F84120FB68002283F84220FB680022D2
:1023480083F84020012387F82730FB681B689B69C6
:1023580003F02003202BDCD1FB681B689B6903F08A
:102368002003202B03D097F82730002B9DD097F817
:102378002730002B03D1FB681B682022DA613B6AF7
:1023880043F004033B62012387F82730FB681B688E
:102398009B69BB61BB6903F48073002B0BD03B6A5C
:1023A80043F001033B62FB681B684FF48072DA61FB
:1023B800012387F82730BB6903F48063002B0BD017
:1023C8003B6A43F008033B62FB681B684FF480627A
:1023D800DA61012387F82730BB6903F40073002B07
:1023E8000BD03B6A43F002033B62FB681B684FF467
:1023F8000072DA61012387F8273097F82730002B1D
:102408001CD0F868FFF737FEFB681B685968FB6843
:102418001A680D4B0B405360FB685A6C3B6A1A43B1
:10242800FB685A64FB68202283F84120FB6800227D
:1024380083F84220FB68002283F8402097F8273071
:1024480018462837BD4680BD00E800FE80B487B036
:1024580000AFF8607B600B467B8113467B727B89FB
:10246800C3F309027B7A1B0403F47F031A437B68D6
:102478001A433B6A134323F000437B61FB681B68E4
:102488005A683B6A5B0D03F48061084B0B43DB43DE
:1024980002EA0301FB681B687A690A435A6000BFB5
:1024A8001C37BD465DF8047B704700BFFF63FF0320
:1024B80080B485B000AF78600B467B800023FB605A
:1024C8007B8803F00103002B0FD0FB6843F0420325
:1024D800FB607B6893F84130DBB203F02803282BBC
:1024E80003D0FB6843F0B003FB607B8803F0020372
:1024F800002B0FD0FB6843F04403FB607B6893F824
:102508004130DBB203F02803282B03D0FB6843F0EB
:10251800B003FB60B7F90230002B03DAFB6843F025
:10252800B803FB607B88102B03D1FB6843F0900352
:10253800FB607B88202B03D1FB6843F02003FB6002
:102548007B88402B03D1FB6843F04003FB607B682A
:102558001B681968FB68DA437B681B680A401A60C5
:1025680000BF1437BD465DF8047B704780B483B064
:1025780000AF786039607B6893F84130DBB2202B7C
:1025880038D17B6893F84030012B01D1022332E027
:102598007B68012283F840207B68242283F841204D
:1025A8007B681B681A687B681B6822F001021A6046
:1025B8007B681B681A687B681B6822F480521A6063
:1025C8007B681B6819687B681B683A680A431A604D
:1025D8007B681B681A687B681B6842F001021A60F6
:1025E8007B68202283F841207B68002283F8402002
:1025F800002300E0022318460C37BD465DF8047B33
:10260800704780B485B000AF786039607B6893F814
:102618004130DBB2202B39D17B6893F84030012B55
:1026280001D1022333E07B68012283F840207B68D4
:10263800242283F841207B681B681A687B681B6822
:1026480022F001021A607B681B681B68FB60FB684C
:1026580023F47063FB603B681B02FA681343FB605A
:102668007B681B68FA681A607B681B681A687B6855
:102678001B6842F001021A607B68202283F841201F
:102688007B68002283F84020002300E002231846DC
:102698001437BD465DF8047B7047000080B485B0F0
:1026A80000AF78607B68002B41D14B4B1B6803F46B
:1026B800C063B3F5806F31D1474BD3F88030464AB9
:1026C80023F48073C2F88030434B1B6823F4C06343
:1026D800414A43F400731360404B1B68322202FBEB
:1026E80003F33F4AA2FB03239B0C0133FB6002E088
:1026F800FB68013BFB60384B5B6903F48063B3F50F
:10270800806F02D1FB68002BF2D1334B5B6903F475
:102718008063B3F5806F58D1032357E02E4BD3F86D
:1027280080302D4A23F48073C2F880304DE07B68F6
:10273800B3F5007F41D1284B1B6803F4C063B3F5A0
:10274800806F31D1244BD3F88030234A43F480730F
:10275800C2F88030204B1B6823F4C0631E4A43F440
:10276800007313601D4B1B68322202FB03F31C4AE3
:10277800A2FB03239B0C0133FB6002E0FB68013BD7
:10278800FB60154B5B6903F48063B3F5806F02D17E
:10279800FB68002BF2D1104B5B6903F48063B3F53F
:1027A800806F12D1032311E00B4BD3F880300A4A13
:1027B80043F48073C2F8803007E0074B1B6823F4AA
:1027C800C063054A43F48063136000231846143736
:1027D800BD465DF8047B7047007000400000002093
:1027E80083DE1B4380B400AF054B9B68044A43F467
:1027F8008043936000BFBD465DF8047B704700BF0F
:102808000070004080B588B000AF78607B68002B0E
:1028180001D1012306E37B681B6803F00103002B49
:1028280075D0974B9B6803F00C03BB61944BDB6836
:1028380003F003037B61BB690C2B02D17B69032B7B
:1028480002D0BB69082B0BD18D4B1B6803F40033F6
:10285800002B5BD07B685B68002B57D10123E1E23A
:102868007B685B68B3F5803F06D1854B1B68844A5B
:1028780043F4803313601DE07B685B68B3F5A02FD9
:102888000CD17F4B1B687E4A43F4802313607C4B3A
:102898001B687B4A43F4803313600BE0784B1B685A
:1028A800774A23F480331360754B1B68744A23F40A
:1028B800802313607B685B68002B13D0FEF746F912
:1028C800386108E0FEF742F902463B69D31A642BE7
:1028D80001D90323A6E26A4B1B6803F40033002BDB
:1028E800F0D014E0FEF732F9386108E0FEF72EF96F
:1028F80002463B69D31A642B01D9032392E2604B49
:102908001B6803F40033002BF0D100E000BF7B68A4
:102918001B6803F00203002B75D0594B9B6803F02A
:102928000C03BB61564BDB6803F003037B61BB6997
:102938000C2B02D17B69022B02D0BB69042B1FD15F
:102948004F4B1B6803F48063002B05D07B68DB6862
:10295800002B01D1012365E2494B5B6823F0FE425D
:102968007B681B691B06464913434B60454B1B6834
:102978001846FEF79FF80346002B43D0012351E287
:102988007B68DB68002B23D03D4B1B683C4A43F433
:1029980080731360FEF7DAF8386108E0FEF7D6F8BE
:1029A80002463B69D31A022B01D903233AE2344B7E
:1029B8001B6803F48063002BF0D0314B5B6823F075
:1029C800FE427B681B691B062D4913434B601AE0C6
:1029D8002B4B1B682A4A23F480731360FEF7B6F862
:1029E800386108E0FEF7B2F802463B69D31A022BB9
:1029F80001D9032316E2224B1B6803F48063002BE2
:102A0800F0D100E000BF7B681B6803F00803002BCF
:102A180041D07B685B69002B1CD0194BD3F89430EC
:102A2800174A43F00103C2F89430FEF78FF8386173
:102A380008E0FEF78BF802463B69D31A022B01D94E
:102A48000323EFE10E4BD3F8943003F00203002B7D
:102A5800EFD020E00A4BD3F89430094A23F0010361
:102A6800C2F89430FEF772F838610DE0FEF76EF8A0
:102A780002463B69D31A022B06D90323D2E100BFD1
:102A880000100240040000208C4BD3F8943003F06F
:102A98000203002BEAD17B681B6803F00403002BB8
:102AA80000F0A6800023FB77844B9B6D03F08053D6
:102AB800002B01D1012300E00023002B0DD07F4B18
:102AC8009B6D7E4A43F0805393657C4B9B6D03F06E
:102AD8008053FB60FB680123FB77794B1B6803F489
:102AE8008073002B18D1764B1B68754A43F48073AA
:102AF8001360FEF72BF8386108E0FEF727F8024666
:102B08003B69D31A022B01D903238BE16C4B1B6859
:102B180003F48073002BF0D07B689B68012B08D1ED
:102B2800664BD3F89030654A43F00103C2F8903001
:102B380024E07B689B68052B10D1604BD3F890305C
:102B48005E4A43F00403C2F890305C4BD3F89030EF
:102B58005A4A43F00103C2F890300FE0574BD3F8BC
:102B68009030564A23F00103C2F89030534BD3F803
:102B78009030524A23F00403C2F890307B689B6877
:102B8800002B16D0FDF7E2FF38610AE0FDF7DEFF03
:102B980002463B69D31A41F28832934201D9032392
:102BA80040E1464BD3F8903003F00203002BEDD000
:102BB80015E0FDF7CBFF38610AE0FDF7C7FF0246D5
:102BC8003B69D31A41F28832934201D9032329E1A0
:102BD8003A4BD3F8903003F00203002BEDD1FB7F82
:102BE800012B05D1354B9B6D344A23F080539365F7
:102BF8007B681B6803F02003002B3CD07B689B6933
:102C0800002B1CD02D4BD3F898302C4A43F00103ED
:102C1800C2F89830FDF79AFF386108E0FDF796FF93
:102C280002463B69D31A022B01D90323FAE0234B4E
:102C3800D3F8983003F00203002BEFD01BE01F4BB2
:102C4800D3F898301D4A23F00103C2F89830FDF7F5
:102C58007DFF386108E0FDF779FF02463B69D31A2A
:102C6800022B01D90323DDE0144BD3F8983003F08D
:102C78000203002BEFD17B68DB69002B00F0D180C9
:102C88000E4B9B6803F00C030C2B00F08B807B68C9
:102C9800DB69022B5ED1094B1B68084A23F080735D
:102CA8001360FDF753FF38610CE0FDF74FFF024654
:102CB8003B69D31A022B05D90323B3E00010024065
:102CC80000700040594B1B6803F00073002BECD1D7
:102CD800564BDA68564B13407A68116A7A68526A1A
:102CE800013A120111437A68926A120211437A6812
:102CF800126B5208013A520511437A68526B520816
:102D0800013A520611437A68D26AD2060A43474901
:102D18001343CB60454B1B68444A43F080731360F0
:102D2800424BDB68414A43F08073D360FDF70EFFE6
:102D3800386108E0FDF70AFF02463B69D31A022B07
:102D480001D903236EE0394B1B6803F00073002B95
:102D5800F0D066E0354B1B68344A23F0807313606B
:102D6800324BDB68314A23F00303D3602F4BDB6817
:102D78002E4A23F0887323F48033D360FDF7E6FEF0
:102D8800386108E0FDF7E2FE02463B69D31A022BE0
:102D980001D9032346E0254B1B6803F00073002B81
:102DA800F0D13EE07B68DB69012B01D1012339E0DA
:102DB8001E4BDB687B617B6903F003027B681B6A3F
:102DC8009A422CD17B6903F0F0027B685B6A013B75
:102DD8001B019A4223D17B6903F4FE427B689B6AFC
:102DE8001B029A421BD17B6903F078427B68DB6A3D
:102DF800DB069A4213D17B6903F4C0027B681B6B24
:102E08005B08013B5B059A4209D17B6903F0C0620C
:102E18007B685B6B5B08013B5B069A4201D0012330
:102E280000E0002318462037BD4680BD0010024050
:102E38000C809F0180B586B000AF786039600023B0
:102E48007B617B68002B01D101231EE1914B1B683C
:102E580003F00F033A689A4210D98E4B1B6823F08F
:102E68000F028C493B6813430B608A4B1B6803F0C5
:102E78000F033A689A4201D0012306E17B681B6878
:102E880003F00103002B73D07B685B68032B29D107
:102E9800814B1B6803F00073002B01D10123F4E080
:102EA80000F066F938613B697C4A93423FD97A4B16
:102EB8009B6803F0F003002B09D07B681B6803F0C4
:102EC8000203002B33D07B689B68002B2FD1724BF9
:102ED8009B6823F0F003704A43F0800393608023DB
:102EE8007B6124E07B685B68022B07D16A4B1B6817
:102EF80003F40033002B09D10123C6E0664B1B689D
:102F080003F48063002B01D10123BEE000F0CEF86A
:102F180038613B69614A934209D95F4B9B6823F04A
:102F2800F0035D4A43F08003936080237B615A4B32
:102F38009B6823F003027B685B68574913438B60E7
:102F4800FDF704FEF8600AE0FDF700FE0246FB68A4
:102F5800D31A41F28832934201D9032395E04E4BAC
:102F68009B6803F00C027B685B689B009A42EBD17C
:102F78007B681B6803F00203002B23D07B681B6867
:102F880003F00403002B05D0434B9B68424A43F4EB
:102F9800E06393607B681B6803F00803002B07D08D
:102FA8003D4B9B6823F47C533B4A43F4E0639360B6
:102FB800394B9B6823F0F0027B689B6836491343C2
:102FC8008B6008E07B69802B05D1334B9B68324AC4
:102FD80023F0F00393602F4B1B6803F00F033A684C
:102FE8009A421DD22B4B1B6823F00F0229493B68DC
:102FF80013430B60FDF7AAFDF8600AE0FDF7A6FD94
:103008000246FB68D31A41F28832934201D903235E
:103018003BE0204B1B6803F00F033A689A42EDD15E
:103028007B681B6803F00403002B08D01A4B9B68CD
:1030380023F4E0627B68DB68174913438B607B6885
:103048001B6803F00803002B09D0134B9B6823F47B
:1030580060527B681B69DB000F4913438B6000F0EB
:1030680025F802460C4B9B681B0903F00F030C491B
:10307800CB5C03F01F0322FA03F30A4A13600A4BDE
:103088001B681846FDF716FD034618461837BD4657
:1030980080BD00BF002002400010024000B4C404FC
:1030A800543A0008000000200400002080B487B0D3
:1030B80000AF2C4B9B6803F00C03042B02D12A4B66
:1030C8003B6147E0274B9B6803F00C03082B02D1B8
:1030D800264B3B613EE0234B9B6803F00C030C2B13
:1030E80036D1204BDB6803F00303FB601D4BDB6824
:1030F8001B0903F00F030133BB60FB68032B0CD1E2
:103108001A4ABB68B2FBF3F3164AD268120A02F0F5
:103118007F0202FB03F37B610CE0134ABB68B2FB3E
:10312800F3F3104AD268120A02F07F0202FB03F39B
:103138007B6100BF0B4BDB685B0E03F003030133BD
:103148005B007B607A697B68B2FBF3F33B6101E06B
:1031580000233B613B6918461C37BD465DF8047B7C
:10316800704700BF001002400024F40000127A00EB
:1031780080B487B000AF1E4BDB6803F003033B61EC
:103188001B4BDB681B0903F00F030133FB603B6932
:10319800032B0CD1174AFB68B2FBF3F3144AD2682D
:1031A800120A02F07F0202FB03F37B610CE0124A71
:1031B800FB68B2FBF3F30E4AD268120A02F07F02F0
:1031C80002FB03F37B6100BF094BDB685B0E03F076
:1031D800030301335B00BB607A69BB68B2FBF3F39E
:1031E8007B607B6818461C37BD465DF8047B7047DA
:1031F8000010024000127A000024F40080B586B066
:1032080000AF78600023FB740023BB747B681B68E5
:1032180003F40023002B00F0988000237B74434BB9
:103228009B6D03F08053002B0DD1404B9B6D3F4AA3
:1032380043F0805393653D4B9B6D03F08053BB6017
:10324800BB6801237B743A4B1B68394A43F480738B
:103258001360FDF77BFCF86009E0FDF777FC024698
:10326800FB68D31A022B02D90323FB7405E0304B09
:103278001B6803F48073002BEFD0FB7C002B59D123
:103288002A4BD3F8903003F440737B617B69002BA1
:103298001ED07B681B6C7A699A4219D0234BD3F8ED
:1032A800903023F440737B61204BD3F890301F4A51
:1032B80043F48033C2F890301C4BD3F890301B4A4B
:1032C80023F48033C2F89030184A7B69C2F89030F2
:1032D8007B6903F00103002B16D0FDF737FCF8607B
:1032E8000BE0FDF733FC0246FB68D31A41F2883243
:1032F800934202D90323FB7406E00C4BD3F89030B9
:1033080003F00203002BECD0FB7C002B0BD1074B06
:10331800D3F8903023F440727B681B6C0349134345
:10332800C1F8903008E0FB7CBB7405E00010024057
:1033380000700040FB7CBB747B7C012B05D1A64B45
:103348009B6DA54A23F0805393657B681B6803F047
:103358000103002B0AD0A04BD3F8883023F00302D6
:103368007B685B689C491343C1F888307B681B689D
:1033780003F00203002B0AD0974BD3F8883023F0D0
:103388000C027B689B6894491343C1F888307B68BA
:103398001B6803F00403002B0AD08F4BD3F8883046
:1033A80023F030027B68DB688B491343C1F888300F
:1033B8007B681B6803F00803002B0AD0864BD3F800
:1033C800883023F0C0027B681B6983491343C1F826
:1033D80088307B681B6803F02003002B0AD07E4BE3
:1033E800D3F8883023F440627B685B697A491343D9
:1033F800C1F888307B681B6803F04003002B0AD0B3
:10340800754BD3F8883023F440527B689B69724926
:103418001343C1F888307B681B6803F08003002BD6
:103428000AD06D4BD3F8883023F440427B68DB69BF
:1034380069491343C1F888307B681B6803F48073BB
:10344800002B0AD0644BD3F8883023F440327B68D1
:103458001B6A61491343C1F888307B681B6803F411
:103468000073002B0AD05C4BD3F8883023F4402239
:103478007B685B6A58491343C1F888307B681B68CE
:1034880003F48063002B15D0534BD3F8883023F412
:1034980040127B689B6A50491343C1F888307B68A7
:1034A8009B6AB3F5801F05D14B4BDB684A4A43F44E
:1034B8008013D3607B681B6803F40063002B15D06E
:1034C800454BD3F8883023F440027B68DB6A4249D5
:1034D8001343C1F888307B68DB6AB3F5800F05D1E8
:1034E8003D4BDB683C4A43F48013D3607B681B6820
:1034F80003F48053002B15D0374BD3F8883023F0D2
:1035080040727B681B6B34491343C1F888307B6871
:103518001B6BB3F1807F05D12F4BDB682E4A43F438
:103528008013D3607B681B6803F40053002B15D00D
:10353800294BD3F8883023F040627B685B6B2649BF
:103548001343C1F888307B685B6BB3F1006F05D11A
:10355800214BDB68204A43F48013D3607B681B68E7
:1035680003F48043002B15D01B4BD3F8883023F08D
:1035780040627B689B6B18491343C1F888307B68AD
:103588009B6BB3F1006F05D1134BDB68124A43F410
:103598008013D3607B681B6803F40043002B15D0AD
:1035A8000D4BD3F8883023F040527B68DB6B0A4917
:1035B8001343C1F888307B68DB6BB3F1805F05D1BA
:1035C800054BDB68044A43F48033D360BB7C184660
:1035D8001837BD4680BD00BF0010024070B50D4DC4
:1035E8000D4C641BA4100026A64209D10B4D0C4CAF
:1035F80000F020F8641BA4100026A64205D170BD77
:1036080055F8043B98470136EEE755F8043B9847D0
:103618000136F2E7643A0008643A0008643A0008A0
:10362800683A000802440346934200D1704703F801
:10363800011BF9E7F8B500BFF8BC08BC9E46704707
:0C364800F8B500BFF8BC08BC9E467047F7
:103654000000000000000000000000000000000066
:103664000000000000000000000000000000000056
:103674000000000000000000C00000000000000086
:103684000000000000000000F8001FFC0000000023
:10369400000000000000000478007FFF80000000AC
:1036A400000000000000001F9E07FFFFF000000064
:1036B400000000000000003FDE0FFFFFFC000000E0
:1036C400000000000000001F8E1FFE00FE0000002E
:1036D400000000000E0000040E3FF0003F00000058
:1036E400000000003FC000001E3FC0001F8000001B
:1036F40000000000FFF00001FC7F000007C0000094
:1037040000000001C03C007FF87E000003E00000E0
:1037140000000003C00E003FE078000003E000005A
:1037240000000003800300000078000001F00000A6
:103734000000000300038007F870000000F00000A0
:10374400000000038000C03FFF20000000F80000DC
:10375400000000018000607C0FC3FFF800780000C7
:1037640000000001C00010F007CFFFFF0078000048
:1037740000000000300008E003FFFFFFC038000035
:10378400000000700000046001FFFFFFE03800004B
:10379400000000780000006001FE0003F83800001B
:1037A40000001E3EFFFFF02001F00000FC38000086
:1037B40000001F1E367FFF0001E000007C3800007F
:1037C40000078F1E24000FF001C000003E380000E7
:1037D4000003C78F140000FC010000001E38000025
:1037E4000001E3C70380000F800000001F380000C1
:1037F4000000F3C700078001F00000000F3800004C
:10380400000071C7001800003C0000000F380000E1
:1038140001FE79C700426000070000000F38000075
:1038240001FF78C700C5A00001C000000F18000008
:1038340001FFB8E701038000003800000F1C0000FE
:1038440000E7B8E7000D0000000780001F1C00001F
:103854001E07B8E2000000000000FC001E0E00007D
:103864001DCF18C000000001000001E03C0600006C
:103874000E7E18000000001F000000007C070000FE
:10388400061818000000019C00000000F8038000E6
:10389400000007FF000000F800000007E011FF80AF
:1038A40000001F0FC00000E08000001FC0107E0059
:1038B40000007801C00000803E0003FF00180000F3
:1038C4000000F007C000F00007FFFFF80018000038
:1038D4000000E007C007FF8000FFFFC000180000E1
:1038E4000000E00000780000000000000018000064
:1038F4000000E00001E00000007F800000180000EC
:103904000000F0000780000003FFE0000038000022
:1039140000007C007C181FE00FC000000030000095
:1039240000003F03F07F9FF81F00000000300000FC
:1039340000000FFFC078071C3E000000007000006C
:10394400000003FE0070038E3C00000000E0000055
:1039540000000000007000073800000000E00000D4
:1039640000000000007800077800000003C0000099
:1039740000000000003C00077800000003C00000C5
:1039840000000000001F801E7C0000000F8000006B
:10399400000000000007FFFC7C0000001F00000086
:1039A4000000000000007FF03E0000007C000000EA
:1039B40000000000000000003F000001F8000000CB
:1039C40000000000000000001FC0000FF000000015
:1039D400000000000000000007FC01FFC000000020
:1039E400000000000000000001FFFFFF00000000D5
:1039F400000000000000000000FFFFF800000000CD
:103A04000000000000000000000FFF0000000000A4
:103A140000000000000000000000000000000000A2
:103A24000000000000000000000000000000000092
:103A34000000000000000000000000000000000082
:103A44000000000000000000000000000000000072
:103A5400000000000000000001020304060708093A
:043A6400FD01000858
:043A6800D901000878
:0C3A6C000024F400100000000100000025
:0400000508000A39AC
:00000001FF
